:100000000C9434000C943E000C943E000C943E0082
:100010000C943E000C943E000C943E000C943E0068
:100020000C943E000C943E000C943E000C943E0058
:100030000C943E000C943E000C943E000C943E0048
:100040000C943E000C943E000C943E000C943E0038
:100050000C943E000C943E000C943E000C943E0028
:100060000C943E000C943E0011241FBECFEFD8E04C
:10007000DEBFCDBF0E9441000C9470000C940000C4
:10008000FFCF0E94430084E020E030E092E44FE0A4
:1000900050E08AB9B901F90107C0A1706F5F7F4FC5
:1000A000EF4FFF4FA03049F08BB9A1E06F337907D4
:1000B000E407F50790F3A12DF0CFB901F90107C0CE
:1000C000A1706F5F7F4FEF4FFF4FA03011F31BB850
:1000D000A1E06F337907E407F50790F3A12DF0CF86
:0400E000F894FFCFC2
:00000001FF
